{
  "contractName": "Attendance",
  "abi": [
    {
      "constant": true,
      "inputs": [
        {
          "internalType": "string",
          "name": "_class",
          "type": "string"
        },
        {
          "internalType": "string",
          "name": "_date",
          "type": "string"
        }
      ],
      "name": "getAttendance",
      "outputs": [
        {
          "internalType": "string",
          "name": "",
          "type": "string"
        }
      ],
      "payable": false,
      "stateMutability": "view",
      "type": "function"
    },
    {
      "constant": false,
      "inputs": [
        {
          "internalType": "string",
          "name": "_class",
          "type": "string"
        },
        {
          "internalType": "string",
          "name": "_date",
          "type": "string"
        },
        {
          "internalType": "string",
          "name": "_list",
          "type": "string"
        }
      ],
      "name": "setAttendance",
      "outputs": [],
      "payable": false,
      "stateMutability": "nonpayable",
      "type": "function"
    }
  ],
  "bytecode": "0x608060405234801561001057600080fd5b506104d4806100206000396000f3fe608060405234801561001057600080fd5b50600436106100365760003560e01c80635d4c475c1461003b578063c27051ab14610182575b600080fd5b6101076004803603604081101561005157600080fd5b810190808035906020019064010000000081111561006e57600080fd5b82018360208201111561008057600080fd5b803590602001918460018302840111640100000000831117156100a257600080fd5b9091929391929390803590602001906401000000008111156100c357600080fd5b8201836020820111156100d557600080fd5b803590602001918460018302840111640100000000831117156100f757600080fd5b90919293919293905050506102a5565b6040518080602001828103825283818151815260200191508051906020019080838360005b8381101561014757808201518184015260208101905061012c565b50505050905090810190601f1680156101745780820380516001836020036101000a031916815260200191505b509250505060405180910390f35b6102a36004803603606081101561019857600080fd5b81019080803590602001906401000000008111156101b557600080fd5b8201836020820111156101c757600080fd5b803590602001918460018302840111640100000000831117156101e957600080fd5b90919293919293908035906020019064010000000081111561020a57600080fd5b82018360208201111561021c57600080fd5b8035906020019184600183028401116401000000008311171561023e57600080fd5b90919293919293908035906020019064010000000081111561025f57600080fd5b82018360208201111561027157600080fd5b8035906020019184600183028401116401000000008311171561029357600080fd5b9091929391929390505050610396565b005b6060600085856040518083838082843780830192505050925050509081526020016040518091039020838360405180838380828437808301925050509250505090815260200160405180910390208054600181600116156101000203166002900480601f0160208091040260200160405190810160405280929190818152602001828054600181600116156101000203166002900480156103875780601f1061035c57610100808354040283529160200191610387565b820191906000526020600020905b81548152906001019060200180831161036a57829003601f168201915b50505050509050949350505050565b81816000888860405180838380828437808301925050509250505090815260200160405180910390208686604051808383808284378083019250505092505050908152602001604051809103902091906103f19291906103fa565b50505050505050565b828054600181600116156101000203166002900490600052602060002090601f016020900481019282601f1061043b57803560ff1916838001178555610469565b82800160010185558215610469579182015b8281111561046857823582559160200191906001019061044d565b5b509050610476919061047a565b5090565b61049c91905b80821115610498576000816000905550600101610480565b5090565b9056fea265627a7a723158206d44894ebd6623e2e3ec27f2fb953e6903cb4277a8d3d6f9dde14687d1a6081f64736f6c63430005100032",
  "source": "// SPDX-License-Identifier: MIT\npragma solidity >=0.4.22 <0.8.0;\n\ncontract Attendance{\n    mapping(string=>mapping(string=>string)) attendanceList ;\n    \n    function getAttendance(string calldata _class,string calldata _date) external view returns(string memory){\n        return attendanceList[_class][_date];\n    } \n    \n    function setAttendance(string calldata _class,string calldata _date,string calldata _list) external{\n        attendanceList[_class][_date] = _list;\n    } \n}\n// pragma solidity >=0.4.22 <0.8.0;\n\n// contract Attendance{\n//     uint public roll = 1;\n//     string public name = \"Urban Nazi\";\n\n//     function setRoll(uint data) external{\n//         roll = data;\n//     }\n\n//     function setName(string calldata data) external{\n//         name = data;\n//     }\n// }",
  "sourcePath": "/home/dynamic/extras/project/contracts/Attendance.sol",
  "compiler": {
    "name": "solc",
    "version": "0.5.16+commit.9c3226ce.Emscripten.clang"
  },
  "schemaVersion": "3.3.2",
  "updatedAt": "2020-12-03T13:34:00.916Z",
  "networkType": "ethereum",
  "devdoc": {
    "methods": {}
  },
  "userdoc": {
    "methods": {}
  }
}