{
  "contractName": "Attendance",
  "abi": [
    {
      "constant": true,
      "inputs": [],
      "name": "name",
      "outputs": [
        {
          "internalType": "string",
          "name": "",
          "type": "string"
        }
      ],
      "payable": false,
      "stateMutability": "view",
      "type": "function"
    },
    {
      "constant": true,
      "inputs": [],
      "name": "roll",
      "outputs": [
        {
          "internalType": "uint256",
          "name": "",
          "type": "uint256"
        }
      ],
      "payable": false,
      "stateMutability": "view",
      "type": "function"
    },
    {
      "constant": false,
      "inputs": [
        {
          "internalType": "uint256",
          "name": "data",
          "type": "uint256"
        }
      ],
      "name": "setRoll",
      "outputs": [],
      "payable": false,
      "stateMutability": "nonpayable",
      "type": "function"
    },
    {
      "constant": false,
      "inputs": [
        {
          "internalType": "string",
          "name": "data",
          "type": "string"
        }
      ],
      "name": "setName",
      "outputs": [],
      "payable": false,
      "stateMutability": "nonpayable",
      "type": "function"
    }
  ],
  "bytecode": "0x608060405260016000556040518060400160405280600a81526020017f557262616e204e617a690000000000000000000000000000000000000000000081525060019080519060200190610054929190610067565b5034801561006157600080fd5b5061010c565b828054600181600116156101000203166002900490600052602060002090601f016020900481019282601f106100a857805160ff19168380011785556100d6565b828001600101855582156100d6579182015b828111156100d55782518255916020019190600101906100ba565b5b5090506100e391906100e7565b5090565b61010991905b808211156101055760008160009055506001016100ed565b5090565b90565b6103378061011b6000396000f3fe608060405234801561001057600080fd5b506004361061004c5760003560e01c806306fdde0314610051578063c47f0027146100d4578063cd5e3c5d1461014d578063ce4b35341461016b575b600080fd5b610059610199565b6040518080602001828103825283818151815260200191508051906020019080838360005b8381101561009957808201518184015260208101905061007e565b50505050905090810190601f1680156100c65780820380516001836020036101000a031916815260200191505b509250505060405180910390f35b61014b600480360360208110156100ea57600080fd5b810190808035906020019064010000000081111561010757600080fd5b82018360208201111561011957600080fd5b8035906020019184600183028401116401000000008311171561013b57600080fd5b9091929391929390505050610237565b005b61015561024d565b6040518082815260200191505060405180910390f35b6101976004803603602081101561018157600080fd5b8101908080359060200190929190505050610253565b005b60018054600181600116156101000203166002900480601f01602080910402602001604051908101604052809291908181526020018280546001816001161561010002031660029004801561022f5780601f106102045761010080835404028352916020019161022f565b820191906000526020600020905b81548152906001019060200180831161021257829003601f168201915b505050505081565b81816001919061024892919061025d565b505050565b60005481565b8060008190555050565b828054600181600116156101000203166002900490600052602060002090601f016020900481019282601f1061029e57803560ff19168380011785556102cc565b828001600101855582156102cc579182015b828111156102cb5782358255916020019190600101906102b0565b5b5090506102d991906102dd565b5090565b6102ff91905b808211156102fb5760008160009055506001016102e3565b5090565b9056fea265627a7a723158208738e525dabe2463b3e9c98377822b2a9900ca0698ddb6ea2f41d106ad375b9564736f6c63430005100032",
  "source": "// SPDX-License-Identifier: MIT\npragma solidity >=0.4.22 <0.8.0;\n\ncontract Attendance{\n    uint public roll = 1;\n    string public name = \"Urban Nazi\";\n\n    function setRoll(uint data) external{\n        roll = data;\n    }\n\n    function setName(string calldata data) external{\n        name = data;\n    }\n}",
  "sourcePath": "/home/dynamic/extras/project/contracts/Attendance.sol",
  "compiler": {
    "name": "solc",
    "version": "0.5.16+commit.9c3226ce.Emscripten.clang"
  },
  "schemaVersion": "3.3.2",
  "updatedAt": "2020-11-29T11:24:50.975Z",
  "networkType": "ethereum",
  "devdoc": {
    "methods": {}
  },
  "userdoc": {
    "methods": {}
  }
}